{
  "_format": "hh-sol-artifact-1",
  "contractName": "IMPT",
  "sourceName": "contracts/IMPT.sol",
  "abi": [
    {
      "inputs": [
        {
          "internalType": "string",
          "name": "name_",
          "type": "string"
        },
        {
          "internalType": "string",
          "name": "symbol_",
          "type": "string"
        },
        {
          "internalType": "address",
          "name": "owner_",
          "type": "address"
        },
        {
          "internalType": "address[]",
          "name": "recipients_",
          "type": "address[]"
        },
        {
          "internalType": "uint256[]",
          "name": "amounts_",
          "type": "uint256[]"
        }
      ],
      "stateMutability": "nonpayable",
      "type": "constructor"
    },
    {
      "anonymous": false,
      "inputs": [
        {
          "indexed": true,
          "internalType": "address",
          "name": "owner",
          "type": "address"
        },
        {
          "indexed": true,
          "internalType": "address",
          "name": "spender",
          "type": "address"
        },
        {
          "indexed": false,
          "internalType": "uint256",
          "name": "value",
          "type": "uint256"
        }
      ],
      "name": "Approval",
      "type": "event"
    },
    {
      "anonymous": false,
      "inputs": [
        {
          "indexed": true,
          "internalType": "address",
          "name": "newOwner",
          "type": "address"
        }
      ],
      "name": "OwnerChanged",
      "type": "event"
    },
    {
      "anonymous": false,
      "inputs": [
        {
          "indexed": true,
          "internalType": "address",
          "name": "nominatedOwner",
          "type": "address"
        }
      ],
      "name": "OwnerNominated",
      "type": "event"
    },
    {
      "anonymous": false,
      "inputs": [
        {
          "indexed": false,
          "internalType": "address",
          "name": "account",
          "type": "address"
        }
      ],
      "name": "Paused",
      "type": "event"
    },
    {
      "anonymous": false,
      "inputs": [
        {
          "indexed": true,
          "internalType": "address",
          "name": "from",
          "type": "address"
        },
        {
          "indexed": true,
          "internalType": "address",
          "name": "to",
          "type": "address"
        },
        {
          "indexed": false,
          "internalType": "uint256",
          "name": "value",
          "type": "uint256"
        }
      ],
      "name": "Transfer",
      "type": "event"
    },
    {
      "anonymous": false,
      "inputs": [
        {
          "indexed": false,
          "internalType": "address",
          "name": "account",
          "type": "address"
        }
      ],
      "name": "Unpaused",
      "type": "event"
    },
    {
      "inputs": [],
      "name": "DOMAIN_SEPARATOR",
      "outputs": [
        {
          "internalType": "bytes32",
          "name": "",
          "type": "bytes32"
        }
      ],
      "stateMutability": "view",
      "type": "function"
    },
    {
      "inputs": [],
      "name": "acceptOwnership",
      "outputs": [
        {
          "internalType": "bool",
          "name": "success",
          "type": "bool"
        }
      ],
      "stateMutability": "nonpayable",
      "type": "function"
    },
    {
      "inputs": [
        {
          "internalType": "address",
          "name": "owner",
          "type": "address"
        },
        {
          "internalType": "address",
          "name": "spender",
          "type": "address"
        }
      ],
      "name": "allowance",
      "outputs": [
        {
          "internalType": "uint256",
          "name": "",
          "type": "uint256"
        }
      ],
      "stateMutability": "view",
      "type": "function"
    },
    {
      "inputs": [
        {
          "internalType": "address",
          "name": "spender",
          "type": "address"
        },
        {
          "internalType": "uint256",
          "name": "amount",
          "type": "uint256"
        }
      ],
      "name": "approve",
      "outputs": [
        {
          "internalType": "bool",
          "name": "",
          "type": "bool"
        }
      ],
      "stateMutability": "nonpayable",
      "type": "function"
    },
    {
      "inputs": [
        {
          "internalType": "address",
          "name": "account",
          "type": "address"
        }
      ],
      "name": "balanceOf",
      "outputs": [
        {
          "internalType": "uint256",
          "name": "",
          "type": "uint256"
        }
      ],
      "stateMutability": "view",
      "type": "function"
    },
    {
      "inputs": [
        {
          "internalType": "uint256",
          "name": "amount",
          "type": "uint256"
        }
      ],
      "name": "burn",
      "outputs": [],
      "stateMutability": "nonpayable",
      "type": "function"
    },
    {
      "inputs": [
        {
          "internalType": "address",
          "name": "account",
          "type": "address"
        },
        {
          "internalType": "uint256",
          "name": "amount",
          "type": "uint256"
        }
      ],
      "name": "burnFrom",
      "outputs": [],
      "stateMutability": "nonpayable",
      "type": "function"
    },
    {
      "inputs": [],
      "name": "decimals",
      "outputs": [
        {
          "internalType": "uint8",
          "name": "",
          "type": "uint8"
        }
      ],
      "stateMutability": "view",
      "type": "function"
    },
    {
      "inputs": [
        {
          "internalType": "address",
          "name": "spender",
          "type": "address"
        },
        {
          "internalType": "uint256",
          "name": "subtractedValue",
          "type": "uint256"
        }
      ],
      "name": "decreaseAllowance",
      "outputs": [
        {
          "internalType": "bool",
          "name": "",
          "type": "bool"
        }
      ],
      "stateMutability": "nonpayable",
      "type": "function"
    },
    {
      "inputs": [
        {
          "internalType": "address",
          "name": "spender",
          "type": "address"
        },
        {
          "internalType": "uint256",
          "name": "addedValue",
          "type": "uint256"
        }
      ],
      "name": "increaseAllowance",
      "outputs": [
        {
          "internalType": "bool",
          "name": "",
          "type": "bool"
        }
      ],
      "stateMutability": "nonpayable",
      "type": "function"
    },
    {
      "inputs": [],
      "name": "name",
      "outputs": [
        {
          "internalType": "string",
          "name": "",
          "type": "string"
        }
      ],
      "stateMutability": "view",
      "type": "function"
    },
    {
      "inputs": [
        {
          "internalType": "address",
          "name": "owner_",
          "type": "address"
        }
      ],
      "name": "nominateNewOwner",
      "outputs": [
        {
          "internalType": "bool",
          "name": "success",
          "type": "bool"
        }
      ],
      "stateMutability": "nonpayable",
      "type": "function"
    },
    {
      "inputs": [],
      "name": "nominatedOwner",
      "outputs": [
        {
          "internalType": "address",
          "name": "",
          "type": "address"
        }
      ],
      "stateMutability": "view",
      "type": "function"
    },
    {
      "inputs": [
        {
          "internalType": "address",
          "name": "owner",
          "type": "address"
        }
      ],
      "name": "nonces",
      "outputs": [
        {
          "internalType": "uint256",
          "name": "",
          "type": "uint256"
        }
      ],
      "stateMutability": "view",
      "type": "function"
    },
    {
      "inputs": [],
      "name": "owner",
      "outputs": [
        {
          "internalType": "address",
          "name": "",
          "type": "address"
        }
      ],
      "stateMutability": "view",
      "type": "function"
    },
    {
      "inputs": [],
      "name": "pause",
      "outputs": [
        {
          "internalType": "bool",
          "name": "",
          "type": "bool"
        }
      ],
      "stateMutability": "nonpayable",
      "type": "function"
    },
    {
      "inputs": [],
      "name": "paused",
      "outputs": [
        {
          "internalType": "bool",
          "name": "",
          "type": "bool"
        }
      ],
      "stateMutability": "view",
      "type": "function"
    },
    {
      "inputs": [
        {
          "internalType": "address",
          "name": "owner",
          "type": "address"
        },
        {
          "internalType": "address",
          "name": "spender",
          "type": "address"
        },
        {
          "internalType": "uint256",
          "name": "value",
          "type": "uint256"
        },
        {
          "internalType": "uint256",
          "name": "deadline",
          "type": "uint256"
        },
        {
          "internalType": "uint8",
          "name": "v",
          "type": "uint8"
        },
        {
          "internalType": "bytes32",
          "name": "r",
          "type": "bytes32"
        },
        {
          "internalType": "bytes32",
          "name": "s",
          "type": "bytes32"
        }
      ],
      "name": "permit",
      "outputs": [],
      "stateMutability": "nonpayable",
      "type": "function"
    },
    {
      "inputs": [],
      "name": "symbol",
      "outputs": [
        {
          "internalType": "string",
          "name": "",
          "type": "string"
        }
      ],
      "stateMutability": "view",
      "type": "function"
    },
    {
      "inputs": [],
      "name": "totalSupply",
      "outputs": [
        {
          "internalType": "uint256",
          "name": "",
          "type": "uint256"
        }
      ],
      "stateMutability": "view",
      "type": "function"
    },
    {
      "inputs": [
        {
          "internalType": "address",
          "name": "to",
          "type": "address"
        },
        {
          "internalType": "uint256",
          "name": "amount",
          "type": "uint256"
        }
      ],
      "name": "transfer",
      "outputs": [
        {
          "internalType": "bool",
          "name": "",
          "type": "bool"
        }
      ],
      "stateMutability": "nonpayable",
      "type": "function"
    },
    {
      "inputs": [
        {
          "internalType": "address",
          "name": "from",
          "type": "address"
        },
        {
          "internalType": "address",
          "name": "to",
          "type": "address"
        },
        {
          "internalType": "uint256",
          "name": "amount",
          "type": "uint256"
        }
      ],
      "name": "transferFrom",
      "outputs": [
        {
          "internalType": "bool",
          "name": "",
          "type": "bool"
        }
      ],
      "stateMutability": "nonpayable",
      "type": "function"
    },
    {
      "inputs": [],
      "name": "unpause",
      "outputs": [
        {
          "internalType": "bool",
          "name": "",
          "type": "bool"
        }
      ],
      "stateMutability": "nonpayable",
      "type": "function"
    }
  ],
  "bytecode": "0x6101406040523480156200001257600080fd5b506040516200431338038062004313833981810160405281019062000038919062000bbd565b84806040518060400160405280600181526020017f310000000000000000000000000000000000000000000000000000000000000081525085888881600390805190602001906200008b9291906200071f565b508060049080519060200190620000a49291906200071f565b505050600073ffffffffffffffffffffffffffffffffffffffff168173ffffffffffffffffffffffffffffffffffffffff1614156200011a576040517f08c379a0000000000000000000000000000000000000000000000000000000008152600401620001119062000d22565b60405180910390fd5b6200012b816200039760201b60201c565b506000600660146101000a81548160ff02191690831515021790555060008280519060200120905060008280519060200120905060007f8b73c3c69bb8fe3d512ecc4cf759cc79239f7b179b0ffacaa9a75d522b39400f90508260e081815250508161010081815250504660a08181525050620001b0818484620004be60201b60201c565b608081815250503073ffffffffffffffffffffffffffffffffffffffff1660c08173ffffffffffffffffffffffffffffffffffffffff1681525050806101208181525050505050505050805182511462000241576040517f08c379a0000000000000000000000000000000000000000000000000000000008152600401620002389062000d94565b60405180910390fd5b60148251111562000289576040517f08c379a0000000000000000000000000000000000000000000000000000000008152600401620002809062000e06565b60405180910390fd5b60006200029b620004fa60201b60201c565b600a620002a9919062000fb8565b905060005b83518110156200038a576000838281518110620002d057620002cf62001009565b5b6020026020010151116200031b576040517f08c379a0000000000000000000000000000000000000000000000000000000008152600401620003129062001088565b60405180910390fd5b6200037484828151811062000335576200033462001009565b5b60200260200101518385848151811062000354576200035362001009565b5b6020026020010151620003689190620010aa565b6200050360201b60201c565b808062000381906200110b565b915050620002ae565b50505050505050620013b6565b8073ffffffffffffffffffffffffffffffffffffffff16600660009054906101000a900473ffffffffffffffffffffffffffffffffffffffff1673ffffffffffffffffffffffffffffffffffffffff161415620003f457620004bb565b80600660006101000a81548173ffffffffffffffffffffffffffffffffffffffff021916908373ffffffffffffffffffffffffffffffffffffffff1602179055506000600560006101000a81548173ffffffffffffffffffffffffffffffffffffffff021916908373ffffffffffffffffffffffffffffffffffffffff1602179055508073ffffffffffffffffffffffffffffffffffffffff167fa2ea9883a321a3e97b8266c2b078bfeec6d50c711ed71f874a90d500ae2eaf3660405160405180910390a25b50565b60008383834630604051602001620004db95949392919062001196565b6040516020818303038152906040528051906020012090509392505050565b60006012905090565b600073ffffffffffffffffffffffffffffffffffffffff168273ffffffffffffffffffffffffffffffffffffffff16141562000576576040517f08c379a00000000000000000000000000000000000000000000000000000000081526004016200056d9062001243565b60405180910390fd5b6200058a600083836200067c60201b60201c565b80600260008282546200059e919062001265565b92505081905550806000808473ffffffffffffffffffffffffffffffffffffffff1673ffffffffffffffffffffffffffffffffffffffff1681526020019081526020016000206000828254620005f5919062001265565b925050819055508173ffffffffffffffffffffffffffffffffffffffff16600073ffffffffffffffffffffffffffffffffffffffff167fddf252ad1be2c89b69c2b068fc378daa952ba7f163c4a11628f55a4df523b3ef836040516200065c9190620012c2565b60405180910390a36200067860008383620006a960201b60201c565b5050565b6200068c620006ae60201b60201c565b620006a48383836200070360201b62000cb31760201c565b505050565b505050565b620006be6200070860201b60201c565b1562000701576040517f08c379a0000000000000000000000000000000000000000000000000000000008152600401620006f8906200132f565b60405180910390fd5b565b505050565b6000600660149054906101000a900460ff16905090565b8280546200072d9062001380565b90600052602060002090601f0160209004810192826200075157600085556200079d565b82601f106200076c57805160ff19168380011785556200079d565b828001600101855582156200079d579182015b828111156200079c5782518255916020019190600101906200077f565b5b509050620007ac9190620007b0565b5090565b5b80821115620007cb576000816000905550600101620007b1565b5090565b6000604051905090565b600080fd5b600080fd5b600080fd5b600080fd5b6000601f19601f8301169050919050565b7f4e487b7100000000000000000000000000000000000000000000000000000000600052604160045260246000fd5b6200083882620007ed565b810181811067ffffffffffffffff821117156200085a5762000859620007fe565b5b80604052505050565b60006200086f620007cf565b90506200087d82826200082d565b919050565b600067ffffffffffffffff821115620008a0576200089f620007fe565b5b620008ab82620007ed565b9050602081019050919050565b60005b83811015620008d8578082015181840152602081019050620008bb565b83811115620008e8576000848401525b50505050565b600062000905620008ff8462000882565b62000863565b905082815260208101848484011115620009245762000923620007e8565b5b62000931848285620008b8565b509392505050565b600082601f830112620009515762000950620007e3565b5b815162000963848260208601620008ee565b91505092915050565b600073ffffffffffffffffffffffffffffffffffffffff82169050919050565b600062000999826200096c565b9050919050565b620009ab816200098c565b8114620009b757600080fd5b50565b600081519050620009cb81620009a0565b92915050565b600067ffffffffffffffff821115620009ef57620009ee620007fe565b5b602082029050602081019050919050565b600080fd5b600062000a1c62000a1684620009d1565b62000863565b9050808382526020820190506020840283018581111562000a425762000a4162000a00565b5b835b8181101562000a6f578062000a5a8882620009ba565b84526020840193505060208101905062000a44565b5050509392505050565b600082601f83011262000a915762000a90620007e3565b5b815162000aa384826020860162000a05565b91505092915050565b600067ffffffffffffffff82111562000aca5762000ac9620007fe565b5b602082029050602081019050919050565b6000819050919050565b62000af08162000adb565b811462000afc57600080fd5b50565b60008151905062000b108162000ae5565b92915050565b600062000b2d62000b278462000aac565b62000863565b9050808382526020820190506020840283018581111562000b535762000b5262000a00565b5b835b8181101562000b80578062000b6b888262000aff565b84526020840193505060208101905062000b55565b5050509392505050565b600082601f83011262000ba25762000ba1620007e3565b5b815162000bb484826020860162000b16565b91505092915050565b600080600080600060a0868803121562000bdc5762000bdb620007d9565b5b600086015167ffffffffffffffff81111562000bfd5762000bfc620007de565b5b62000c0b8882890162000939565b955050602086015167ffffffffffffffff81111562000c2f5762000c2e620007de565b5b62000c3d8882890162000939565b945050604062000c5088828901620009ba565b935050606086015167ffffffffffffffff81111562000c745762000c73620007de565b5b62000c828882890162000a79565b925050608086015167ffffffffffffffff81111562000ca65762000ca5620007de565b5b62000cb48882890162000b8a565b9150509295509295909350565b600082825260208201905092915050565b7f4f776e6572206973207a65726f00000000000000000000000000000000000000600082015250565b600062000d0a600d8362000cc1565b915062000d178262000cd2565b602082019050919050565b6000602082019050818103600083015262000d3d8162000cfb565b9050919050565b7f496e76616c696420706172616d73206c656e6774680000000000000000000000600082015250565b600062000d7c60158362000cc1565b915062000d898262000d44565b602082019050919050565b6000602082019050818103600083015262000daf8162000d6d565b9050919050565b7f496e76616c696420726563697069656e7473206c656e67746800000000000000600082015250565b600062000dee60198362000cc1565b915062000dfb8262000db6565b602082019050919050565b6000602082019050818103600083015262000e218162000ddf565b9050919050565b7f4e487b7100000000000000000000000000000000000000000000000000000000600052601160045260246000fd5b60008160011c9050919050565b6000808291508390505b600185111562000eb65780860481111562000e8e5762000e8d62000e28565b5b600185161562000e9e5780820291505b808102905062000eae8562000e57565b945062000e6e565b94509492505050565b60008262000ed1576001905062000fa4565b8162000ee1576000905062000fa4565b816001811462000efa576002811462000f055762000f3b565b600191505062000fa4565b60ff84111562000f1a5762000f1962000e28565b5b8360020a91508482111562000f345762000f3362000e28565b5b5062000fa4565b5060208310610133831016604e8410600b841016171562000f755782820a90508381111562000f6f5762000f6e62000e28565b5b62000fa4565b62000f84848484600162000e64565b9250905081840481111562000f9e5762000f9d62000e28565b5b81810290505b9392505050565b600060ff82169050919050565b600062000fc58262000adb565b915062000fd28362000fab565b9250620010017fffffffffffffffffffffffffffffffffffffffffffffffffffffffffffffffff848462000ebf565b905092915050565b7f4e487b7100000000000000000000000000000000000000000000000000000000600052603260045260246000fd5b7f416d6f756e74206973206e6f7420706f73697469766500000000000000000000600082015250565b60006200107060168362000cc1565b91506200107d8262001038565b602082019050919050565b60006020820190508181036000830152620010a38162001061565b9050919050565b6000620010b78262000adb565b9150620010c48362000adb565b9250817fffffffffffffffffffffffffffffffffffffffffffffffffffffffffffffffff04831182151516156200110057620010ff62000e28565b5b828202905092915050565b6000620011188262000adb565b91507fffffffffffffffffffffffffffffffffffffffffffffffffffffffffffffffff8214156200114e576200114d62000e28565b5b600182019050919050565b6000819050919050565b6200116e8162001159565b82525050565b6200117f8162000adb565b82525050565b62001190816200098c565b82525050565b600060a082019050620011ad600083018862001163565b620011bc602083018762001163565b620011cb604083018662001163565b620011da606083018562001174565b620011e9608083018462001185565b9695505050505050565b7f45524332303a206d696e7420746f20746865207a65726f206164647265737300600082015250565b60006200122b601f8362000cc1565b91506200123882620011f3565b602082019050919050565b600060208201905081810360008301526200125e816200121c565b9050919050565b6000620012728262000adb565b91506200127f8362000adb565b9250827fffffffffffffffffffffffffffffffffffffffffffffffffffffffffffffffff03821115620012b757620012b662000e28565b5b828201905092915050565b6000602082019050620012d9600083018462001174565b92915050565b7f5061757361626c653a2070617573656400000000000000000000000000000000600082015250565b60006200131760108362000cc1565b91506200132482620012df565b602082019050919050565b600060208201905081810360008301526200134a8162001308565b9050919050565b7f4e487b7100000000000000000000000000000000000000000000000000000000600052602260045260246000fd5b600060028204905060018216806200139957607f821691505b60208210811415620013b057620013af62001351565b5b50919050565b60805160a05160c05160e0516101005161012051612f0d62001406600039600061142a0152600061146c0152600061144b01526000611380015260006113d6015260006113ff0152612f0d6000f3fe608060405234801561001057600080fd5b506004361061014d5760003560e01c80635c975abb116100c35780638da5cb5b1161007c5780638da5cb5b146103b857806395d89b41146103d6578063a457c2d7146103f4578063a9059cbb14610424578063d505accf14610454578063dd62ed3e146104705761014d565b80635c975abb146102e257806370a082311461030057806379ba50971461033057806379cc67901461034e5780637ecebe001461036a5780638456cb591461039a5761014d565b8063313ce56711610115578063313ce5671461021e5780633644e5151461023c578063395093511461025a5780633f4ba83a1461028a57806342966c68146102a857806353a47bb7146102c45761014d565b806306fdde0314610152578063095ea7b3146101705780631627540c146101a057806318160ddd146101d057806323b872dd146101ee575b600080fd5b61015a6104a0565b6040516101679190611db7565b60405180910390f35b61018a60048036038101906101859190611e72565b610532565b6040516101979190611ecd565b60405180910390f35b6101ba60048036038101906101b59190611ee8565b610555565b6040516101c79190611ecd565b60405180910390f35b6101d86105f9565b6040516101e59190611f24565b60405180910390f35b61020860048036038101906102039190611f3f565b610603565b6040516102159190611ecd565b60405180910390f35b610226610632565b6040516102339190611fae565b60405180910390f35b61024461063b565b6040516102519190611fe2565b60405180910390f35b610274600480360381019061026f9190611e72565b61064a565b6040516102819190611ecd565b60405180910390f35b610292610681565b60405161029f9190611ecd565b60405180910390f35b6102c260048036038101906102bd9190611ffd565b610722565b005b6102cc610736565b6040516102d99190612039565b60405180910390f35b6102ea610760565b6040516102f79190611ecd565b60405180910390f35b61031a60048036038101906103159190611ee8565b610777565b6040516103279190611f24565b60405180910390f35b6103386107bf565b6040516103459190611ecd565b60405180910390f35b61036860048036038101906103639190611e72565b610883565b005b610384600480360381019061037f9190611ee8565b6108a3565b6040516103919190611f24565b60405180910390f35b6103a26108f3565b6040516103af9190611ecd565b60405180910390f35b6103c0610994565b6040516103cd9190612039565b60405180910390f35b6103de6109be565b6040516103eb9190611db7565b60405180910390f35b61040e60048036038101906104099190611e72565b610a50565b60405161041b9190611ecd565b60405180910390f35b61043e60048036038101906104399190611e72565b610ac7565b60405161044b9190611ecd565b60405180910390f35b61046e600480360381019061046991906120ac565b610aea565b005b61048a6004803603810190610485919061214e565b610c2c565b6040516104979190611f24565b60405180910390f35b6060600380546104af906121bd565b80601f01602080910402602001604051908101604052809291908181526020018280546104db906121bd565b80156105285780601f106104fd57610100808354040283529160200191610528565b820191906000526020600020905b81548152906001019060200180831161050b57829003601f168201915b5050505050905090565b60008061053d610cb8565b905061054a818585610cc0565b600191505092915050565b6000600660009054906101000a900473ffffffffffffffffffffffffffffffffffffffff1673ffffffffffffffffffffffffffffffffffffffff163373ffffffffffffffffffffffffffffffffffffffff16146105e7576040517f08c379a00000000000000000000000000000000000000000000000000000000081526004016105de9061223b565b60405180910390fd5b6105f082610e8b565b60019050919050565b6000600254905090565b60008061060e610cb8565b905061061b85828561106f565b6106268585856110fb565b60019150509392505050565b60006012905090565b600061064561137c565b905090565b600080610655610cb8565b90506106768185856106678589610c2c565b610671919061228a565b610cc0565b600191505092915050565b6000600660009054906101000a900473ffffffffffffffffffffffffffffffffffffffff1673ffffffffffffffffffffffffffffffffffffffff163373ffffffffffffffffffffffffffffffffffffffff1614610713576040517f08c379a000000000000000000000000000000000000000000000000000000000815260040161070a9061223b565b60405180910390fd5b61071b611496565b6001905090565b61073361072d610cb8565b826114f9565b50565b6000600560009054906101000a900473ffffffffffffffffffffffffffffffffffffffff16905090565b6000600660149054906101000a900460ff16905090565b60008060008373ffffffffffffffffffffffffffffffffffffffff1673ffffffffffffffffffffffffffffffffffffffff168152602001908152602001600020549050919050565b6000600560009054906101000a900473ffffffffffffffffffffffffffffffffffffffff1673ffffffffffffffffffffffffffffffffffffffff163373ffffffffffffffffffffffffffffffffffffffff1614610851576040517f08c379a00000000000000000000000000000000000000000000000000000000081526004016108489061232c565b60405180910390fd5b61087c600560009054906101000a900473ffffffffffffffffffffffffffffffffffffffff166116d0565b6001905090565b6108958261088f610cb8565b8361106f565b61089f82826114f9565b5050565b60006108ec600760008473ffffffffffffffffffffffffffffffffffffffff1673ffffffffffffffffffffffffffffffffffffffff1681526020019081526020016000206117f5565b9050919050565b6000600660009054906101000a900473ffffffffffffffffffffffffffffffffffffffff1673ffffffffffffffffffffffffffffffffffffffff163373ffffffffffffffffffffffffffffffffffffffff1614610985576040517f08c379a000000000000000000000000000000000000000000000000000000000815260040161097c9061223b565b60405180910390fd5b61098d611803565b6001905090565b6000600660009054906101000a900473ffffffffffffffffffffffffffffffffffffffff16905090565b6060600480546109cd906121bd565b80601f01602080910402602001604051908101604052809291908181526020018280546109f9906121bd565b8015610a465780601f10610a1b57610100808354040283529160200191610a46565b820191906000526020600020905b815481529060010190602001808311610a2957829003601f168201915b5050505050905090565b600080610a5b610cb8565b90506000610a698286610c2c565b905083811015610aae576040517f08c379a0000000000000000000000000000000000000000000000000000000008152600401610aa5906123be565b60405180910390fd5b610abb8286868403610cc0565b60019250505092915050565b600080610ad2610cb8565b9050610adf8185856110fb565b600191505092915050565b83421115610b2d576040517f08c379a0000000000000000000000000000000000000000000000000000000008152600401610b249061242a565b60405180910390fd5b60007f6e71edae12b1b97f4d1f60370fef10105fa2faae0126114a169c64845d6126c9888888610b5c8c611866565b89604051602001610b729695949392919061244a565b6040516020818303038152906040528051906020012090506000610b95826118c4565b90506000610ba5828787876118de565b90508973ffffffffffffffffffffffffffffffffffffffff168173ffffffffffffffffffffffffffffffffffffffff1614610c15576040517f08c379a0000000000000000000000000000000000000000000000000000000008152600401610c0c906124f7565b60405180910390fd5b610c208a8a8a610cc0565b50505050505050505050565b6000600160008473ffffffffffffffffffffffffffffffffffffffff1673ffffffffffffffffffffffffffffffffffffffff16815260200190815260200160002060008373ffffffffffffffffffffffffffffffffffffffff1673ffffffffffffffffffffffffffffffffffffffff16815260200190815260200160002054905092915050565b505050565b600033905090565b600073ffffffffffffffffffffffffffffffffffffffff168373ffffffffffffffffffffffffffffffffffffffff161415610d30576040517f08c379a0000000000000000000000000000000000000000000000000000000008152600401610d2790612589565b60405180910390fd5b600073ffffffffffffffffffffffffffffffffffffffff168273ffffffffffffffffffffffffffffffffffffffff161415610da0576040517f08c379a0000000000000000000000000000000000000000000000000000000008152600401610d979061261b565b60405180910390fd5b80600160008573ffffffffffffffffffffffffffffffffffffffff1673ffffffffffffffffffffffffffffffffffffffff16815260200190815260200160002060008473ffffffffffffffffffffffffffffffffffffffff1673ffffffffffffffffffffffffffffffffffffffff168152602001908152602001600020819055508173ffffffffffffffffffffffffffffffffffffffff168373ffffffffffffffffffffffffffffffffffffffff167f8c5be1e5ebec7d5bd14f71427d1e84f3dd0314c0f7b2291e5b200ac8c7c3b92583604051610e7e9190611f24565b60405180910390a3505050565b8073ffffffffffffffffffffffffffffffffffffffff16600560009054906101000a900473ffffffffffffffffffffffffffffffffffffffff1673ffffffffffffffffffffffffffffffffffffffff161415610ee65761106c565b8073ffffffffffffffffffffffffffffffffffffffff16600660009054906101000a900473ffffffffffffffffffffffffffffffffffffffff1673ffffffffffffffffffffffffffffffffffffffff161415610f77576040517f08c379a0000000000000000000000000000000000000000000000000000000008152600401610f6e90612687565b60405180910390fd5b600073ffffffffffffffffffffffffffffffffffffffff168173ffffffffffffffffffffffffffffffffffffffff161415610fe7576040517f08c379a0000000000000000000000000000000000000000000000000000000008152600401610fde906126f3565b60405180910390fd5b80600560006101000a81548173ffffffffffffffffffffffffffffffffffffffff021916908373ffffffffffffffffffffffffffffffffffffffff1602179055508073ffffffffffffffffffffffffffffffffffffffff167f906a1c6bd7e3091ea86693dd029a831c19049ce77f1dce2ce0bab1cacbabce2260405160405180910390a25b50565b600061107b8484610c2c565b90507fffffffffffffffffffffffffffffffffffffffffffffffffffffffffffffffff81146110f557818110156110e7576040517f08c379a00000000000000000000000000000000000000000000000000000000081526004016110de9061275f565b60405180910390fd5b6110f48484848403610cc0565b5b50505050565b600073ffffffffffffffffffffffffffffffffffffffff168373ffffffffffffffffffffffffffffffffffffffff16141561116b576040517f08c379a0000000000000000000000000000000000000000000000000000000008152600401611162906127f1565b60405180910390fd5b600073ffffffffffffffffffffffffffffffffffffffff168273ffffffffffffffffffffffffffffffffffffffff1614156111db576040517f08c379a00000000000000000000000000000000000000000000000000000000081526004016111d290612883565b60405180910390fd5b6111e6838383611909565b60008060008573ffffffffffffffffffffffffffffffffffffffff1673ffffffffffffffffffffffffffffffffffffffff1681526020019081526020016000205490508181101561126c576040517f08c379a000000000000000000000000000000000000000000000000000000000815260040161126390612915565b60405180910390fd5b8181036000808673ffffffffffffffffffffffffffffffffffffffff1673ffffffffffffffffffffffffffffffffffffffff16815260200190815260200160002081905550816000808573ffffffffffffffffffffffffffffffffffffffff1673ffffffffffffffffffffffffffffffffffffffff16815260200190815260200160002060008282546112ff919061228a565b925050819055508273ffffffffffffffffffffffffffffffffffffffff168473ffffffffffffffffffffffffffffffffffffffff167fddf252ad1be2c89b69c2b068fc378daa952ba7f163c4a11628f55a4df523b3ef846040516113639190611f24565b60405180910390a3611376848484611921565b50505050565b60007f000000000000000000000000000000000000000000000000000000000000000073ffffffffffffffffffffffffffffffffffffffff163073ffffffffffffffffffffffffffffffffffffffff161480156113f857507f000000000000000000000000000000000000000000000000000000000000000046145b15611425577f00000000000000000000000000000000000000000000000000000000000000009050611493565b6114907f00000000000000000000000000000000000000000000000000000000000000007f00000000000000000000000000000000000000000000000000000000000000007f0000000000000000000000000000000000000000000000000000000000000000611926565b90505b90565b61149e611960565b6000600660146101000a81548160ff0219169083151502179055507f5db9ee0a495bf2e6ff9c91a7834c1ba4fdd244a5e8aa4e537bd38aeae4b073aa6114e2610cb8565b6040516114ef9190612039565b60405180910390a1565b600073ffffffffffffffffffffffffffffffffffffffff168273ffffffffffffffffffffffffffffffffffffffff161415611569576040517f08c379a0000000000000000000000000000000000000000000000000000000008152600401611560906129a7565b60405180910390fd5b61157582600083611909565b60008060008473ffffffffffffffffffffffffffffffffffffffff1673ffffffffffffffffffffffffffffffffffffffff168152602001908152602001600020549050818110156115fb576040517f08c379a00000000000000000000000000000000000000000000000000000000081526004016115f290612a39565b60405180910390fd5b8181036000808573ffffffffffffffffffffffffffffffffffffffff1673ffffffffffffffffffffffffffffffffffffffff1681526020019081526020016000208190555081600260008282546116529190612a59565b92505081905550600073ffffffffffffffffffffffffffffffffffffffff168373ffffffffffffffffffffffffffffffffffffffff167fddf252ad1be2c89b69c2b068fc378daa952ba7f163c4a11628f55a4df523b3ef846040516116b79190611f24565b60405180910390a36116cb83600084611921565b505050565b8073ffffffffffffffffffffffffffffffffffffffff16600660009054906101000a900473ffffffffffffffffffffffffffffffffffffffff1673ffffffffffffffffffffffffffffffffffffffff16141561172b576117f2565b80600660006101000a81548173ffffffffffffffffffffffffffffffffffffffff021916908373ffffffffffffffffffffffffffffffffffffffff1602179055506000600560006101000a81548173ffffffffffffffffffffffffffffffffffffffff021916908373ffffffffffffffffffffffffffffffffffffffff1602179055508073ffffffffffffffffffffffffffffffffffffffff167fa2ea9883a321a3e97b8266c2b078bfeec6d50c711ed71f874a90d500ae2eaf3660405160405180910390a25b50565b600081600001549050919050565b61180b6119a9565b6001600660146101000a81548160ff0219169083151502179055507f62e78cea01bee320cd4e420270b5ea74000d11b0c9f74754ebdbfc544b05a25861184f610cb8565b60405161185c9190612039565b60405180910390a1565b600080600760008473ffffffffffffffffffffffffffffffffffffffff1673ffffffffffffffffffffffffffffffffffffffff16815260200190815260200160002090506118b3816117f5565b91506118be816119f3565b50919050565b60006118d76118d161137c565b83611a09565b9050919050565b60008060006118ef87878787611a3c565b915091506118fc81611b49565b8192505050949350505050565b6119116119a9565b61191c838383610cb3565b505050565b505050565b60008383834630604051602001611941959493929190612a8d565b6040516020818303038152906040528051906020012090509392505050565b611968610760565b6119a7576040517f08c379a000000000000000000000000000000000000000000000000000000000815260040161199e90612b2c565b60405180910390fd5b565b6119b1610760565b156119f1576040517f08c379a00000000000000000000000000000000000000000000000000000000081526004016119e890612b98565b60405180910390fd5b565b6001816000016000828254019250508190555050565b60008282604051602001611a1e929190612c30565b60405160208183030381529060405280519060200120905092915050565b6000807f7fffffffffffffffffffffffffffffff5d576e7357a4501ddfe92f46681b20a08360001c1115611a77576000600391509150611b40565b601b8560ff1614158015611a8f5750601c8560ff1614155b15611aa1576000600491509150611b40565b600060018787878760405160008152602001604052604051611ac69493929190612c67565b6020604051602081039080840390855afa158015611ae8573d6000803e3d6000fd5b505050602060405103519050600073ffffffffffffffffffffffffffffffffffffffff168173ffffffffffffffffffffffffffffffffffffffff161415611b3757600060019250925050611b40565b80600092509250505b94509492505050565b60006004811115611b5d57611b5c612cac565b5b816004811115611b7057611b6f612cac565b5b1415611b7b57611d1b565b60016004811115611b8f57611b8e612cac565b5b816004811115611ba257611ba1612cac565b5b1415611be3576040517f08c379a0000000000000000000000000000000000000000000000000000000008152600401611bda90612d27565b60405180910390fd5b60026004811115611bf757611bf6612cac565b5b816004811115611c0a57611c09612cac565b5b1415611c4b576040517f08c379a0000000000000000000000000000000000000000000000000000000008152600401611c4290612d93565b60405180910390fd5b60036004811115611c5f57611c5e612cac565b5b816004811115611c7257611c71612cac565b5b1415611cb3576040517f08c379a0000000000000000000000000000000000000000000000000000000008152600401611caa90612e25565b60405180910390fd5b600480811115611cc657611cc5612cac565b5b816004811115611cd957611cd8612cac565b5b1415611d1a576040517f08c379a0000000000000000000000000000000000000000000000000000000008152600401611d1190612eb7565b60405180910390fd5b5b50565b600081519050919050565b600082825260208201905092915050565b60005b83811015611d58578082015181840152602081019050611d3d565b83811115611d67576000848401525b50505050565b6000601f19601f8301169050919050565b6000611d8982611d1e565b611d938185611d29565b9350611da3818560208601611d3a565b611dac81611d6d565b840191505092915050565b60006020820190508181036000830152611dd18184611d7e565b905092915050565b600080fd5b600073ffffffffffffffffffffffffffffffffffffffff82169050919050565b6000611e0982611dde565b9050919050565b611e1981611dfe565b8114611e2457600080fd5b50565b600081359050611e3681611e10565b92915050565b6000819050919050565b611e4f81611e3c565b8114611e5a57600080fd5b50565b600081359050611e6c81611e46565b92915050565b60008060408385031215611e8957611e88611dd9565b5b6000611e9785828601611e27565b9250506020611ea885828601611e5d565b9150509250929050565b60008115159050919050565b611ec781611eb2565b82525050565b6000602082019050611ee26000830184611ebe565b92915050565b600060208284031215611efe57611efd611dd9565b5b6000611f0c84828501611e27565b91505092915050565b611f1e81611e3c565b82525050565b6000602082019050611f396000830184611f15565b92915050565b600080600060608486031215611f5857611f57611dd9565b5b6000611f6686828701611e27565b9350506020611f7786828701611e27565b9250506040611f8886828701611e5d565b9150509250925092565b600060ff82169050919050565b611fa881611f92565b82525050565b6000602082019050611fc36000830184611f9f565b92915050565b6000819050919050565b611fdc81611fc9565b82525050565b6000602082019050611ff76000830184611fd3565b92915050565b60006020828403121561201357612012611dd9565b5b600061202184828501611e5d565b91505092915050565b61203381611dfe565b82525050565b600060208201905061204e600083018461202a565b92915050565b61205d81611f92565b811461206857600080fd5b50565b60008135905061207a81612054565b92915050565b61208981611fc9565b811461209457600080fd5b50565b6000813590506120a681612080565b92915050565b600080600080600080600060e0888a0312156120cb576120ca611dd9565b5b60006120d98a828b01611e27565b97505060206120ea8a828b01611e27565b96505060406120fb8a828b01611e5d565b955050606061210c8a828b01611e5d565b945050608061211d8a828b0161206b565b93505060a061212e8a828b01612097565b92505060c061213f8a828b01612097565b91505092959891949750929550565b6000806040838503121561216557612164611dd9565b5b600061217385828601611e27565b925050602061218485828601611e27565b9150509250929050565b7f4e487b7100000000000000000000000000000000000000000000000000000000600052602260045260246000fd5b600060028204905060018216806121d557607f821691505b602082108114156121e9576121e861218e565b5b50919050565b7f4e6f74206f776e65720000000000000000000000000000000000000000000000600082015250565b6000612225600983611d29565b9150612230826121ef565b602082019050919050565b6000602082019050818103600083015261225481612218565b9050919050565b7f4e487b7100000000000000000000000000000000000000000000000000000000600052601160045260246000fd5b600061229582611e3c565b91506122a083611e3c565b9250827fffffffffffffffffffffffffffffffffffffffffffffffffffffffffffffffff038211156122d5576122d461225b565b5b828201905092915050565b7f4e6f74206e6f6d696e6174656420746f206f776e657273686970000000000000600082015250565b6000612316601a83611d29565b9150612321826122e0565b602082019050919050565b6000602082019050818103600083015261234581612309565b9050919050565b7f45524332303a2064656372656173656420616c6c6f77616e63652062656c6f7760008201527f207a65726f000000000000000000000000000000000000000000000000000000602082015250565b60006123a8602583611d29565b91506123b38261234c565b604082019050919050565b600060208201905081810360008301526123d78161239b565b9050919050565b7f45524332305065726d69743a206578706972656420646561646c696e65000000600082015250565b6000612414601d83611d29565b915061241f826123de565b602082019050919050565b6000602082019050818103600083015261244381612407565b9050919050565b600060c08201905061245f6000830189611fd3565b61246c602083018861202a565b612479604083018761202a565b6124866060830186611f15565b6124936080830185611f15565b6124a060a0830184611f15565b979650505050505050565b7f45524332305065726d69743a20696e76616c6964207369676e61747572650000600082015250565b60006124e1601e83611d29565b91506124ec826124ab565b602082019050919050565b60006020820190508181036000830152612510816124d4565b9050919050565b7f45524332303a20617070726f76652066726f6d20746865207a65726f2061646460008201527f7265737300000000000000000000000000000000000000000000000000000000602082015250565b6000612573602483611d29565b915061257e82612517565b604082019050919050565b600060208201905081810360008301526125a281612566565b9050919050565b7f45524332303a20617070726f766520746f20746865207a65726f20616464726560008201527f7373000000000000000000000000000000000000000000000000000000000000602082015250565b6000612605602283611d29565b9150612610826125a9565b604082019050919050565b60006020820190508181036000830152612634816125f8565b9050919050565b7f416c7265616479206f776e657200000000000000000000000000000000000000600082015250565b6000612671600d83611d29565b915061267c8261263b565b602082019050919050565b600060208201905081810360008301526126a081612664565b9050919050565b7f5a65726f20616464726573730000000000000000000000000000000000000000600082015250565b60006126dd600c83611d29565b91506126e8826126a7565b602082019050919050565b6000602082019050818103600083015261270c816126d0565b9050919050565b7f45524332303a20696e73756666696369656e7420616c6c6f77616e6365000000600082015250565b6000612749601d83611d29565b915061275482612713565b602082019050919050565b600060208201905081810360008301526127788161273c565b9050919050565b7f45524332303a207472616e736665722066726f6d20746865207a65726f20616460008201527f6472657373000000000000000000000000000000000000000000000000000000602082015250565b60006127db602583611d29565b91506127e68261277f565b604082019050919050565b6000602082019050818103600083015261280a816127ce565b9050919050565b7f45524332303a207472616e7366657220746f20746865207a65726f206164647260008201527f6573730000000000000000000000000000000000000000000000000000000000602082015250565b600061286d602383611d29565b915061287882612811565b604082019050919050565b6000602082019050818103600083015261289c81612860565b9050919050565b7f45524332303a207472616e7366657220616d6f756e742065786365656473206260008201527f616c616e63650000000000000000000000000000000000000000000000000000602082015250565b60006128ff602683611d29565b915061290a826128a3565b604082019050919050565b6000602082019050818103600083015261292e816128f2565b9050919050565b7f45524332303a206275726e2066726f6d20746865207a65726f2061646472657360008201527f7300000000000000000000000000000000000000000000000000000000000000602082015250565b6000612991602183611d29565b915061299c82612935565b604082019050919050565b600060208201905081810360008301526129c081612984565b9050919050565b7f45524332303a206275726e20616d6f756e7420657863656564732062616c616e60008201527f6365000000000000000000000000000000000000000000000000000000000000602082015250565b6000612a23602283611d29565b9150612a2e826129c7565b604082019050919050565b60006020820190508181036000830152612a5281612a16565b9050919050565b6000612a6482611e3c565b9150612a6f83611e3c565b925082821015612a8257612a8161225b565b5b828203905092915050565b600060a082019050612aa26000830188611fd3565b612aaf6020830187611fd3565b612abc6040830186611fd3565b612ac96060830185611f15565b612ad6608083018461202a565b9695505050505050565b7f5061757361626c653a206e6f7420706175736564000000000000000000000000600082015250565b6000612b16601483611d29565b9150612b2182612ae0565b602082019050919050565b60006020820190508181036000830152612b4581612b09565b9050919050565b7f5061757361626c653a2070617573656400000000000000000000000000000000600082015250565b6000612b82601083611d29565b9150612b8d82612b4c565b602082019050919050565b60006020820190508181036000830152612bb181612b75565b9050919050565b600081905092915050565b7f1901000000000000000000000000000000000000000000000000000000000000600082015250565b6000612bf9600283612bb8565b9150612c0482612bc3565b600282019050919050565b6000819050919050565b612c2a612c2582611fc9565b612c0f565b82525050565b6000612c3b82612bec565b9150612c478285612c19565b602082019150612c578284612c19565b6020820191508190509392505050565b6000608082019050612c7c6000830187611fd3565b612c896020830186611f9f565b612c966040830185611fd3565b612ca36060830184611fd3565b95945050505050565b7f4e487b7100000000000000000000000000000000000000000000000000000000600052602160045260246000fd5b7f45434453413a20696e76616c6964207369676e61747572650000000000000000600082015250565b6000612d11601883611d29565b9150612d1c82612cdb565b602082019050919050565b60006020820190508181036000830152612d4081612d04565b9050919050565b7f45434453413a20696e76616c6964207369676e6174757265206c656e67746800600082015250565b6000612d7d601f83611d29565b9150612d8882612d47565b602082019050919050565b60006020820190508181036000830152612dac81612d70565b9050919050565b7f45434453413a20696e76616c6964207369676e6174757265202773272076616c60008201527f7565000000000000000000000000000000000000000000000000000000000000602082015250565b6000612e0f602283611d29565b9150612e1a82612db3565b604082019050919050565b60006020820190508181036000830152612e3e81612e02565b9050919050565b7f45434453413a20696e76616c6964207369676e6174757265202776272076616c60008201527f7565000000000000000000000000000000000000000000000000000000000000602082015250565b6000612ea1602283611d29565b9150612eac82612e45565b604082019050919050565b60006020820190508181036000830152612ed081612e94565b905091905056fea264697066735822122054d4b327569ad5c95b8c84e17b4520e73323d59b5b50b219cd2d88cdfdc7ff4664736f6c634300080c0033",
  "linkReferences": {},
  "deployedLinkReferences": {}
}