{
  "_format": "hh-sol-artifact-1",
  "contractName": "IMPT",
  "sourceName": "contracts/IMPT.sol",
  "abi": [
    {
      "inputs": [
        {
          "internalType": "string",
          "name": "name_",
          "type": "string"
        },
        {
          "internalType": "string",
          "name": "symbol_",
          "type": "string"
        },
        {
          "internalType": "address",
          "name": "owner_",
          "type": "address"
        },
        {
          "internalType": "address[]",
          "name": "recipients_",
          "type": "address[]"
        },
        {
          "internalType": "uint256[]",
          "name": "amounts_",
          "type": "uint256[]"
        }
      ],
      "stateMutability": "nonpayable",
      "type": "constructor"
    },
    {
      "anonymous": false,
      "inputs": [
        {
          "indexed": true,
          "internalType": "address",
          "name": "owner",
          "type": "address"
        },
        {
          "indexed": true,
          "internalType": "address",
          "name": "spender",
          "type": "address"
        },
        {
          "indexed": false,
          "internalType": "uint256",
          "name": "value",
          "type": "uint256"
        }
      ],
      "name": "Approval",
      "type": "event"
    },
    {
      "anonymous": false,
      "inputs": [
        {
          "indexed": true,
          "internalType": "address",
          "name": "newOwner",
          "type": "address"
        }
      ],
      "name": "OwnerChanged",
      "type": "event"
    },
    {
      "anonymous": false,
      "inputs": [
        {
          "indexed": true,
          "internalType": "address",
          "name": "nominatedOwner",
          "type": "address"
        }
      ],
      "name": "OwnerNominated",
      "type": "event"
    },
    {
      "anonymous": false,
      "inputs": [
        {
          "indexed": false,
          "internalType": "address",
          "name": "account",
          "type": "address"
        }
      ],
      "name": "Paused",
      "type": "event"
    },
    {
      "anonymous": false,
      "inputs": [
        {
          "indexed": true,
          "internalType": "address",
          "name": "from",
          "type": "address"
        },
        {
          "indexed": true,
          "internalType": "address",
          "name": "to",
          "type": "address"
        },
        {
          "indexed": false,
          "internalType": "uint256",
          "name": "value",
          "type": "uint256"
        }
      ],
      "name": "Transfer",
      "type": "event"
    },
    {
      "anonymous": false,
      "inputs": [
        {
          "indexed": false,
          "internalType": "address",
          "name": "account",
          "type": "address"
        }
      ],
      "name": "Unpaused",
      "type": "event"
    },
    {
      "inputs": [],
      "name": "DOMAIN_SEPARATOR",
      "outputs": [
        {
          "internalType": "bytes32",
          "name": "",
          "type": "bytes32"
        }
      ],
      "stateMutability": "view",
      "type": "function"
    },
    {
      "inputs": [],
      "name": "acceptOwnership",
      "outputs": [
        {
          "internalType": "bool",
          "name": "success",
          "type": "bool"
        }
      ],
      "stateMutability": "nonpayable",
      "type": "function"
    },
    {
      "inputs": [
        {
          "internalType": "address",
          "name": "owner",
          "type": "address"
        },
        {
          "internalType": "address",
          "name": "spender",
          "type": "address"
        }
      ],
      "name": "allowance",
      "outputs": [
        {
          "internalType": "uint256",
          "name": "",
          "type": "uint256"
        }
      ],
      "stateMutability": "view",
      "type": "function"
    },
    {
      "inputs": [
        {
          "internalType": "address",
          "name": "spender",
          "type": "address"
        },
        {
          "internalType": "uint256",
          "name": "amount",
          "type": "uint256"
        }
      ],
      "name": "approve",
      "outputs": [
        {
          "internalType": "bool",
          "name": "",
          "type": "bool"
        }
      ],
      "stateMutability": "nonpayable",
      "type": "function"
    },
    {
      "inputs": [
        {
          "internalType": "address",
          "name": "account",
          "type": "address"
        }
      ],
      "name": "balanceOf",
      "outputs": [
        {
          "internalType": "uint256",
          "name": "",
          "type": "uint256"
        }
      ],
      "stateMutability": "view",
      "type": "function"
    },
    {
      "inputs": [
        {
          "internalType": "uint256",
          "name": "amount",
          "type": "uint256"
        }
      ],
      "name": "burn",
      "outputs": [],
      "stateMutability": "nonpayable",
      "type": "function"
    },
    {
      "inputs": [
        {
          "internalType": "address",
          "name": "account",
          "type": "address"
        },
        {
          "internalType": "uint256",
          "name": "amount",
          "type": "uint256"
        }
      ],
      "name": "burnFrom",
      "outputs": [],
      "stateMutability": "nonpayable",
      "type": "function"
    },
    {
      "inputs": [],
      "name": "decimals",
      "outputs": [
        {
          "internalType": "uint8",
          "name": "",
          "type": "uint8"
        }
      ],
      "stateMutability": "view",
      "type": "function"
    },
    {
      "inputs": [
        {
          "internalType": "address",
          "name": "spender",
          "type": "address"
        },
        {
          "internalType": "uint256",
          "name": "subtractedValue",
          "type": "uint256"
        }
      ],
      "name": "decreaseAllowance",
      "outputs": [
        {
          "internalType": "bool",
          "name": "",
          "type": "bool"
        }
      ],
      "stateMutability": "nonpayable",
      "type": "function"
    },
    {
      "inputs": [
        {
          "internalType": "address",
          "name": "spender",
          "type": "address"
        },
        {
          "internalType": "uint256",
          "name": "addedValue",
          "type": "uint256"
        }
      ],
      "name": "increaseAllowance",
      "outputs": [
        {
          "internalType": "bool",
          "name": "",
          "type": "bool"
        }
      ],
      "stateMutability": "nonpayable",
      "type": "function"
    },
    {
      "inputs": [],
      "name": "name",
      "outputs": [
        {
          "internalType": "string",
          "name": "",
          "type": "string"
        }
      ],
      "stateMutability": "view",
      "type": "function"
    },
    {
      "inputs": [
        {
          "internalType": "address",
          "name": "owner_",
          "type": "address"
        }
      ],
      "name": "nominateNewOwner",
      "outputs": [
        {
          "internalType": "bool",
          "name": "success",
          "type": "bool"
        }
      ],
      "stateMutability": "nonpayable",
      "type": "function"
    },
    {
      "inputs": [],
      "name": "nominatedOwner",
      "outputs": [
        {
          "internalType": "address",
          "name": "",
          "type": "address"
        }
      ],
      "stateMutability": "view",
      "type": "function"
    },
    {
      "inputs": [
        {
          "internalType": "address",
          "name": "owner",
          "type": "address"
        }
      ],
      "name": "nonces",
      "outputs": [
        {
          "internalType": "uint256",
          "name": "",
          "type": "uint256"
        }
      ],
      "stateMutability": "view",
      "type": "function"
    },
    {
      "inputs": [],
      "name": "owner",
      "outputs": [
        {
          "internalType": "address",
          "name": "",
          "type": "address"
        }
      ],
      "stateMutability": "view",
      "type": "function"
    },
    {
      "inputs": [],
      "name": "pause",
      "outputs": [
        {
          "internalType": "bool",
          "name": "",
          "type": "bool"
        }
      ],
      "stateMutability": "nonpayable",
      "type": "function"
    },
    {
      "inputs": [],
      "name": "paused",
      "outputs": [
        {
          "internalType": "bool",
          "name": "",
          "type": "bool"
        }
      ],
      "stateMutability": "view",
      "type": "function"
    },
    {
      "inputs": [
        {
          "internalType": "address",
          "name": "owner",
          "type": "address"
        },
        {
          "internalType": "address",
          "name": "spender",
          "type": "address"
        },
        {
          "internalType": "uint256",
          "name": "value",
          "type": "uint256"
        },
        {
          "internalType": "uint256",
          "name": "deadline",
          "type": "uint256"
        },
        {
          "internalType": "uint8",
          "name": "v",
          "type": "uint8"
        },
        {
          "internalType": "bytes32",
          "name": "r",
          "type": "bytes32"
        },
        {
          "internalType": "bytes32",
          "name": "s",
          "type": "bytes32"
        }
      ],
      "name": "permit",
      "outputs": [],
      "stateMutability": "nonpayable",
      "type": "function"
    },
    {
      "inputs": [],
      "name": "symbol",
      "outputs": [
        {
          "internalType": "string",
          "name": "",
          "type": "string"
        }
      ],
      "stateMutability": "view",
      "type": "function"
    },
    {
      "inputs": [],
      "name": "totalSupply",
      "outputs": [
        {
          "internalType": "uint256",
          "name": "",
          "type": "uint256"
        }
      ],
      "stateMutability": "view",
      "type": "function"
    },
    {
      "inputs": [
        {
          "internalType": "address",
          "name": "to",
          "type": "address"
        },
        {
          "internalType": "uint256",
          "name": "amount",
          "type": "uint256"
        }
      ],
      "name": "transfer",
      "outputs": [
        {
          "internalType": "bool",
          "name": "",
          "type": "bool"
        }
      ],
      "stateMutability": "nonpayable",
      "type": "function"
    },
    {
      "inputs": [
        {
          "internalType": "address",
          "name": "from",
          "type": "address"
        },
        {
          "internalType": "address",
          "name": "to",
          "type": "address"
        },
        {
          "internalType": "uint256",
          "name": "amount",
          "type": "uint256"
        }
      ],
      "name": "transferFrom",
      "outputs": [
        {
          "internalType": "bool",
          "name": "",
          "type": "bool"
        }
      ],
      "stateMutability": "nonpayable",
      "type": "function"
    },
    {
      "inputs": [],
      "name": "unpause",
      "outputs": [
        {
          "internalType": "bool",
          "name": "",
          "type": "bool"
        }
      ],
      "stateMutability": "nonpayable",
      "type": "function"
    }
  ],
  "bytecode": "0x6101406040523480156200001257600080fd5b5060405162004e5338038062004e5383398181016040528101906200003891906200103f565b84806040518060400160405280600181526020017f310000000000000000000000000000000000000000000000000000000000000081525085888881600390805190602001906200008b92919062000ba1565b508060049080519060200190620000a492919062000ba1565b505050620000c36726d04ba3f77ac14060c01b6200066f60201b60201c565b620000df6732eaf8b91be4683160c01b6200066f60201b60201c565b620000fb679abe033824f6589160c01b6200066f60201b60201c565b6200011767296982725942fec560c01b6200066f60201b60201c565b600073ffffffffffffffffffffffffffffffffffffffff168173ffffffffffffffffffffffffffffffffffffffff1614156200018a576040517f08c379a00000000000000000000000000000000000000000000000000000000081526004016200018190620011a4565b60405180910390fd5b620001a6676c59a1d33c044bb860c01b6200066f60201b60201c565b620001c267f6044cc26d70e35360c01b6200066f60201b60201c565b620001de67e0d6e6e59e00392f60c01b6200066f60201b60201c565b620001ef816200067260201b60201c565b506000600660146101000a81548160ff02191690831515021790555060008280519060200120905060008280519060200120905060007f8b73c3c69bb8fe3d512ecc4cf759cc79239f7b179b0ffacaa9a75d522b39400f90508260e081815250508161010081815250504660a0818152505062000274818484620008b160201b60201c565b608081815250503073ffffffffffffffffffffffffffffffffffffffff1660c08173ffffffffffffffffffffffffffffffffffffffff1681525050806101208181525050505050505050620002da673ba6643ae6b71cb260c01b620008ed60201b60201c565b620002f667059187e1bb2233d960c01b620008ed60201b60201c565b6200031267a80e76493e43fd6760c01b620008ed60201b60201c565b6200032e679e6964a270d77cb260c01b620008ed60201b60201c565b805182511462000375576040517f08c379a00000000000000000000000000000000000000000000000000000000081526004016200036c9062001216565b60405180910390fd5b6200039167495d8872cc0b1d4960c01b620008ed60201b60201c565b620003ad677951fe08bd5c944760c01b620008ed60201b60201c565b620003c967fd5487b68e7ac43c60c01b620008ed60201b60201c565b620003e567967d92aa631a18d360c01b620008ed60201b60201c565b6014825111156200042d576040517f08c379a0000000000000000000000000000000000000000000000000000000008152600401620004249062001288565b60405180910390fd5b6200044967a911f01750592ead60c01b620008ed60201b60201c565b6200046567cdbec2fb8bb2371c60c01b620008ed60201b60201c565b620004816796bd2f5113ba0e0e60c01b620008ed60201b60201c565b600062000493620008f060201b60201c565b600a620004a191906200143a565b9050620004bf67f794487b8e50fe6660c01b620008ed60201b60201c565b620004db6783e8638085f5903560c01b620008ed60201b60201c565b60005b835181101562000662576200050467eaf75ad640e3fa1a60c01b620008ed60201b60201c565b62000520673fd03e972bcdb5e260c01b620008ed60201b60201c565b6200053c674ac6bb52bdab736160c01b620008ed60201b60201c565b60008382815181106200055457620005536200148b565b5b6020026020010151116200059f576040517f08c379a000000000000000000000000000000000000000000000000000000000815260040162000596906200150a565b60405180910390fd5b620005bb67c8141b5b98246ded60c01b620008ed60201b60201c565b620005d767486045f3f3a86e7e60c01b620008ed60201b60201c565b620005f36740110bbd9fe256c460c01b620008ed60201b60201c565b6200064c8482815181106200060d576200060c6200148b565b5b6020026020010151838584815181106200062c576200062b6200148b565b5b60200260200101516200064091906200152c565b620008f960201b60201c565b808062000659906200158d565b915050620004de565b5050505050505062001838565b50565b6200068e67c790d01e52c8cd3160c01b6200066f60201b60201c565b620006aa67e41dd628fcba993460c01b6200066f60201b60201c565b620006c667a25ac37fd1e9768c60c01b6200066f60201b60201c565b8073ffffffffffffffffffffffffffffffffffffffff16600660009054906101000a900473ffffffffffffffffffffffffffffffffffffffff1673ffffffffffffffffffffffffffffffffffffffff1614156200075b5762000739674c55346b7666187460c01b6200066f60201b60201c565b6200075567dedf3fe086f16ba360c01b6200066f60201b60201c565b620008ae565b620007776702059a2e1f03a2ca60c01b6200066f60201b60201c565b620007936746c1ff4c7421569060c01b6200066f60201b60201c565b80600660006101000a81548173ffffffffffffffffffffffffffffffffffffffff021916908373ffffffffffffffffffffffffffffffffffffffff160217905550620007f0675edf67129ddd284c60c01b6200066f60201b60201c565b6000600560006101000a81548173ffffffffffffffffffffffffffffffffffffffff021916908373ffffffffffffffffffffffffffffffffffffffff1602179055506200084e679134a0b578d5a97d60c01b6200066f60201b60201c565b6200086a678ea4abb9ddfb0ad060c01b6200066f60201b60201c565b8073ffffffffffffffffffffffffffffffffffffffff167fa2ea9883a321a3e97b8266c2b078bfeec6d50c711ed71f874a90d500ae2eaf3660405160405180910390a25b50565b60008383834630604051602001620008ce95949392919062001618565b6040516020818303038152906040528051906020012090509392505050565b50565b60006012905090565b600073ffffffffffffffffffffffffffffffffffffffff168273ffffffffffffffffffffffffffffffffffffffff1614156200096c576040517f08c379a00000000000000000000000000000000000000000000000000000000081526004016200096390620016c5565b60405180910390fd5b620009806000838362000a7260201b60201c565b8060026000828254620009949190620016e7565b92505081905550806000808473ffffffffffffffffffffffffffffffffffffffff1673ffffffffffffffffffffffffffffffffffffffff1681526020019081526020016000206000828254620009eb9190620016e7565b925050819055508173ffffffffffffffffffffffffffffffffffffffff16600073ffffffffffffffffffffffffffffffffffffffff167fddf252ad1be2c89b69c2b068fc378daa952ba7f163c4a11628f55a4df523b3ef8360405162000a52919062001744565b60405180910390a362000a6e6000838362000b2b60201b60201c565b5050565b62000a8e67b751a1837a038f5d60c01b620008ed60201b60201c565b62000a9e62000b3060201b60201c565b62000aba6747283dbf4f02b8ab60c01b620008ed60201b60201c565b62000ad66757b5c307a40fcf1b60c01b620008ed60201b60201c565b62000af2676cbf01586cd54a2360c01b620008ed60201b60201c565b62000b0e67b40a5aadaab04e1a60c01b620008ed60201b60201c565b62000b2683838362000b8560201b620010eb1760201c565b505050565b505050565b62000b4062000b8a60201b60201c565b1562000b83576040517f08c379a000000000000000000000000000000000000000000000000000000000815260040162000b7a90620017b1565b60405180910390fd5b565b505050565b6000600660149054906101000a900460ff16905090565b82805462000baf9062001802565b90600052602060002090601f01602090048101928262000bd3576000855562000c1f565b82601f1062000bee57805160ff191683800117855562000c1f565b8280016001018555821562000c1f579182015b8281111562000c1e57825182559160200191906001019062000c01565b5b50905062000c2e919062000c32565b5090565b5b8082111562000c4d57600081600090555060010162000c33565b5090565b6000604051905090565b600080fd5b600080fd5b600080fd5b600080fd5b6000601f19601f8301169050919050565b7f4e487b7100000000000000000000000000000000000000000000000000000000600052604160045260246000fd5b62000cba8262000c6f565b810181811067ffffffffffffffff8211171562000cdc5762000cdb62000c80565b5b80604052505050565b600062000cf162000c51565b905062000cff828262000caf565b919050565b600067ffffffffffffffff82111562000d225762000d2162000c80565b5b62000d2d8262000c6f565b9050602081019050919050565b60005b8381101562000d5a57808201518184015260208101905062000d3d565b8381111562000d6a576000848401525b50505050565b600062000d8762000d818462000d04565b62000ce5565b90508281526020810184848401111562000da65762000da562000c6a565b5b62000db384828562000d3a565b509392505050565b600082601f83011262000dd35762000dd262000c65565b5b815162000de584826020860162000d70565b91505092915050565b600073ffffffffffffffffffffffffffffffffffffffff82169050919050565b600062000e1b8262000dee565b9050919050565b62000e2d8162000e0e565b811462000e3957600080fd5b50565b60008151905062000e4d8162000e22565b92915050565b600067ffffffffffffffff82111562000e715762000e7062000c80565b5b602082029050602081019050919050565b600080fd5b600062000e9e62000e988462000e53565b62000ce5565b9050808382526020820190506020840283018581111562000ec45762000ec362000e82565b5b835b8181101562000ef1578062000edc888262000e3c565b84526020840193505060208101905062000ec6565b5050509392505050565b600082601f83011262000f135762000f1262000c65565b5b815162000f2584826020860162000e87565b91505092915050565b600067ffffffffffffffff82111562000f4c5762000f4b62000c80565b5b602082029050602081019050919050565b6000819050919050565b62000f728162000f5d565b811462000f7e57600080fd5b50565b60008151905062000f928162000f67565b92915050565b600062000faf62000fa98462000f2e565b62000ce5565b9050808382526020820190506020840283018581111562000fd55762000fd462000e82565b5b835b8181101562001002578062000fed888262000f81565b84526020840193505060208101905062000fd7565b5050509392505050565b600082601f83011262001024576200102362000c65565b5b81516200103684826020860162000f98565b91505092915050565b600080600080600060a086880312156200105e576200105d62000c5b565b5b600086015167ffffffffffffffff8111156200107f576200107e62000c60565b5b6200108d8882890162000dbb565b955050602086015167ffffffffffffffff811115620010b157620010b062000c60565b5b620010bf8882890162000dbb565b9450506040620010d28882890162000e3c565b935050606086015167ffffffffffffffff811115620010f657620010f562000c60565b5b620011048882890162000efb565b925050608086015167ffffffffffffffff81111562001128576200112762000c60565b5b62001136888289016200100c565b9150509295509295909350565b600082825260208201905092915050565b7f4f776e6572206973207a65726f00000000000000000000000000000000000000600082015250565b60006200118c600d8362001143565b9150620011998262001154565b602082019050919050565b60006020820190508181036000830152620011bf816200117d565b9050919050565b7f496e76616c696420706172616d73206c656e6774680000000000000000000000600082015250565b6000620011fe60158362001143565b91506200120b82620011c6565b602082019050919050565b600060208201905081810360008301526200123181620011ef565b9050919050565b7f496e76616c696420726563697069656e7473206c656e67746800000000000000600082015250565b60006200127060198362001143565b91506200127d8262001238565b602082019050919050565b60006020820190508181036000830152620012a38162001261565b9050919050565b7f4e487b7100000000000000000000000000000000000000000000000000000000600052601160045260246000fd5b60008160011c9050919050565b6000808291508390505b6001851115620013385780860481111562001310576200130f620012aa565b5b6001851615620013205780820291505b80810290506200133085620012d9565b9450620012f0565b94509492505050565b60008262001353576001905062001426565b8162001363576000905062001426565b81600181146200137c57600281146200138757620013bd565b600191505062001426565b60ff8411156200139c576200139b620012aa565b5b8360020a915084821115620013b657620013b5620012aa565b5b5062001426565b5060208310610133831016604e8410600b8410161715620013f75782820a905083811115620013f157620013f0620012aa565b5b62001426565b620014068484846001620012e6565b9250905081840481111562001420576200141f620012aa565b5b81810290505b9392505050565b600060ff82169050919050565b6000620014478262000f5d565b915062001454836200142d565b9250620014837fffffffffffffffffffffffffffffffffffffffffffffffffffffffffffffffff848462001341565b905092915050565b7f4e487b7100000000000000000000000000000000000000000000000000000000600052603260045260246000fd5b7f416d6f756e74206973206e6f7420706f73697469766500000000000000000000600082015250565b6000620014f260168362001143565b9150620014ff82620014ba565b602082019050919050565b600060208201905081810360008301526200152581620014e3565b9050919050565b6000620015398262000f5d565b9150620015468362000f5d565b9250817fffffffffffffffffffffffffffffffffffffffffffffffffffffffffffffffff0483118215151615620015825762001581620012aa565b5b828202905092915050565b60006200159a8262000f5d565b91507fffffffffffffffffffffffffffffffffffffffffffffffffffffffffffffffff821415620015d057620015cf620012aa565b5b600182019050919050565b6000819050919050565b620015f081620015db565b82525050565b620016018162000f5d565b82525050565b620016128162000e0e565b82525050565b600060a0820190506200162f6000830188620015e5565b6200163e6020830187620015e5565b6200164d6040830186620015e5565b6200165c6060830185620015f6565b6200166b608083018462001607565b9695505050505050565b7f45524332303a206d696e7420746f20746865207a65726f206164647265737300600082015250565b6000620016ad601f8362001143565b9150620016ba8262001675565b602082019050919050565b60006020820190508181036000830152620016e0816200169e565b9050919050565b6000620016f48262000f5d565b9150620017018362000f5d565b9250827fffffffffffffffffffffffffffffffffffffffffffffffffffffffffffffffff03821115620017395762001738620012aa565b5b828201905092915050565b60006020820190506200175b6000830184620015f6565b92915050565b7f5061757361626c653a2070617573656400000000000000000000000000000000600082015250565b60006200179960108362001143565b9150620017a68262001761565b602082019050919050565b60006020820190508181036000830152620017cc816200178a565b9050919050565b7f4e487b7100000000000000000000000000000000000000000000000000000000600052602260045260246000fd5b600060028204905060018216806200181b57607f821691505b60208210811415620018325762001831620017d3565b5b50919050565b60805160a05160c05160e05161010051610120516135cb6200188860003960006119b9015260006119fb015260006119da0152600061190f015260006119650152600061198e01526135cb6000f3fe608060405234801561001057600080fd5b506004361061014d5760003560e01c80635c975abb116100c35780638da5cb5b1161007c5780638da5cb5b146103b857806395d89b41146103d6578063a457c2d7146103f4578063a9059cbb14610424578063d505accf14610454578063dd62ed3e146104705761014d565b80635c975abb146102e257806370a082311461030057806379ba50971461033057806379cc67901461034e5780637ecebe001461036a5780638456cb591461039a5761014d565b8063313ce56711610115578063313ce5671461021e5780633644e5151461023c578063395093511461025a5780633f4ba83a1461028a57806342966c68146102a857806353a47bb7146102c45761014d565b806306fdde0314610152578063095ea7b3146101705780631627540c146101a057806318160ddd146101d057806323b872dd146101ee575b600080fd5b61015a6104a0565b6040516101679190612475565b60405180910390f35b61018a60048036038101906101859190612530565b610532565b604051610197919061258b565b60405180910390f35b6101ba60048036038101906101b591906125a6565b610555565b6040516101c7919061258b565b60405180910390f35b6101d86106fd565b6040516101e591906125e2565b60405180910390f35b610208600480360381019061020391906125fd565b610707565b604051610215919061258b565b60405180910390f35b610226610736565b604051610233919061266c565b60405180910390f35b61024461073f565b60405161025191906126a0565b60405180910390f35b610274600480360381019061026f9190612530565b61074e565b604051610281919061258b565b60405180910390f35b610292610785565b60405161029f919061258b565b60405180910390f35b6102c260048036038101906102bd91906126bb565b61092a565b005b6102cc61093e565b6040516102d991906126f7565b60405180910390f35b6102ea6109a4565b6040516102f7919061258b565b60405180910390f35b61031a600480360381019061031591906125a6565b6109bb565b60405161032791906125e2565b60405180910390f35b610338610a03565b604051610345919061258b565b60405180910390f35b61036860048036038101906103639190612530565b610b7b565b005b610384600480360381019061037f91906125a6565b610b9b565b60405161039191906125e2565b60405180910390f35b6103a2610beb565b6040516103af919061258b565b60405180910390f35b6103c0610d90565b6040516103cd91906126f7565b60405180910390f35b6103de610df6565b6040516103eb9190612475565b60405180910390f35b61040e60048036038101906104099190612530565b610e88565b60405161041b919061258b565b60405180910390f35b61043e60048036038101906104399190612530565b610eff565b60405161044b919061258b565b60405180910390f35b61046e6004803603810190610469919061276a565b610f22565b005b61048a6004803603810190610485919061280c565b611064565b60405161049791906125e2565b60405180910390f35b6060600380546104af9061287b565b80601f01602080910402602001604051908101604052809291908181526020018280546104db9061287b565b80156105285780601f106104fd57610100808354040283529160200191610528565b820191906000526020600020905b81548152906001019060200180831161050b57829003601f168201915b5050505050905090565b60008061053d6110f0565b905061054a8185856110f8565b600191505092915050565b600061056b672ccf2362b5b567de60c01b6112c3565b61057f67a9af51bd4c146af160c01b6112c3565b61059367b6afec885107b9e760c01b6112c3565b6105a7679456c38e5751f44460c01b6112c3565b6105bb673d40c2b80590d5de60c01b6112c3565b600660009054906101000a900473ffffffffffffffffffffffffffffffffffffffff1673ffffffffffffffffffffffffffffffffffffffff163373ffffffffffffffffffffffffffffffffffffffff161461064b576040517f08c379a0000000000000000000000000000000000000000000000000000000008152600401610642906128f9565b60405180910390fd5b61065f67b9fbce713e5b584760c01b6112c3565b61067367e7d6283c2a8b1d2060c01b6112c3565b6106876720dc7cb13fe3224d60c01b6112c3565b61069b671f5ca95d610195f060c01b6112c3565b6106af6720657dd4b68a487760c01b6112c3565b6106c3678f7a985787baccb760c01b6112c3565b6106cc826112c6565b6106e0675d4410421762a09960c01b6112c3565b6106f467dba4103b61c1fa0060c01b6112c3565b60019050919050565b6000600254905090565b6000806107126110f0565b905061071f8582856115fe565b61072a85858561168a565b60019150509392505050565b60006012905090565b600061074961190b565b905090565b6000806107596110f0565b905061077a81858561076b8589611064565b6107759190612948565b6110f8565b600191505092915050565b600061079b67d36764e1b3e7f8e360c01b611a25565b6107af67a9af51bd4c146af160c01b6112c3565b6107c367b6afec885107b9e760c01b6112c3565b6107d7679456c38e5751f44460c01b6112c3565b6107eb673d40c2b80590d5de60c01b6112c3565b600660009054906101000a900473ffffffffffffffffffffffffffffffffffffffff1673ffffffffffffffffffffffffffffffffffffffff163373ffffffffffffffffffffffffffffffffffffffff161461087b576040517f08c379a0000000000000000000000000000000000000000000000000000000008152600401610872906128f9565b60405180910390fd5b61088f67b9fbce713e5b584760c01b6112c3565b6108a367e7d6283c2a8b1d2060c01b6112c3565b6108b7671c30ba6054088edd60c01b611a25565b6108cb67b87fb12d7a0d180c60c01b611a25565b6108df67961e03cc37300bcc60c01b611a25565b6108f367034313f5c13652dc60c01b611a25565b6108fb611a28565b61090f673329edde9be91cd160c01b611a25565b610923674f95e88777d52c2660c01b611a25565b6001905090565b61093b6109356110f0565b82611a8b565b50565b6000610954679a5808a217432a3e60c01b6112c3565b610968679cd818203870a62b60c01b6112c3565b61097c67f183ab4ecbd1f87c60c01b6112c3565b600560009054906101000a900473ffffffffffffffffffffffffffffffffffffffff16905090565b6000600660149054906101000a900460ff16905090565b60008060008373ffffffffffffffffffffffffffffffffffffffff1673ffffffffffffffffffffffffffffffffffffffff168152602001908152602001600020549050919050565b6000610a19672b51293f86b992b860c01b6112c3565b610a2d6794894f7e2e6c00b960c01b6112c3565b610a4167d2561a53beadfe4460c01b6112c3565b610a55674e147396d0e61d7b60c01b6112c3565b600560009054906101000a900473ffffffffffffffffffffffffffffffffffffffff1673ffffffffffffffffffffffffffffffffffffffff163373ffffffffffffffffffffffffffffffffffffffff1614610ae5576040517f08c379a0000000000000000000000000000000000000000000000000000000008152600401610adc906129ea565b60405180910390fd5b610af9679b367b3faf0ef4ac60c01b6112c3565b610b0d67e922319db80b8e4760c01b6112c3565b610b2167f2db521c2a1488aa60c01b6112c3565b610b4c600560009054906101000a900473ffffffffffffffffffffffffffffffffffffffff16611c62565b610b606799d108939253b11a60c01b6112c3565b610b74679f0272994509954360c01b6112c3565b6001905090565b610b8d82610b876110f0565b836115fe565b610b978282611a8b565b5050565b6000610be4600760008473ffffffffffffffffffffffffffffffffffffffff1673ffffffffffffffffffffffffffffffffffffffff168152602001908152602001600020611e4f565b9050919050565b6000610c0167da5ddb931512080a60c01b611a25565b610c1567a9af51bd4c146af160c01b6112c3565b610c2967b6afec885107b9e760c01b6112c3565b610c3d679456c38e5751f44460c01b6112c3565b610c51673d40c2b80590d5de60c01b6112c3565b600660009054906101000a900473ffffffffffffffffffffffffffffffffffffffff1673ffffffffffffffffffffffffffffffffffffffff163373ffffffffffffffffffffffffffffffffffffffff1614610ce1576040517f08c379a0000000000000000000000000000000000000000000000000000000008152600401610cd8906128f9565b60405180910390fd5b610cf567b9fbce713e5b584760c01b6112c3565b610d0967e7d6283c2a8b1d2060c01b6112c3565b610d1d67276ccecf501b419060c01b611a25565b610d31676182947d92c0300a60c01b611a25565b610d45671a2c3214aa3b276560c01b611a25565b610d5967ac95a0049a64a6b860c01b611a25565b610d61611e5d565b610d7567b5ff746877b3ed1960c01b611a25565b610d8967be32620ba947745d60c01b611a25565b6001905090565b6000610da667128a84719f14d0f760c01b6112c3565b610dba6784091744b8131a5a60c01b6112c3565b610dce679f3081134a5eb2f460c01b6112c3565b600660009054906101000a900473ffffffffffffffffffffffffffffffffffffffff16905090565b606060048054610e059061287b565b80601f0160208091040260200160405190810160405280929190818152602001828054610e319061287b565b8015610e7e5780601f10610e5357610100808354040283529160200191610e7e565b820191906000526020600020905b815481529060010190602001808311610e6157829003601f168201915b5050505050905090565b600080610e936110f0565b90506000610ea18286611064565b905083811015610ee6576040517f08c379a0000000000000000000000000000000000000000000000000000000008152600401610edd90612a7c565b60405180910390fd5b610ef382868684036110f8565b60019250505092915050565b600080610f0a6110f0565b9050610f1781858561168a565b600191505092915050565b83421115610f65576040517f08c379a0000000000000000000000000000000000000000000000000000000008152600401610f5c90612ae8565b60405180910390fd5b60007f6e71edae12b1b97f4d1f60370fef10105fa2faae0126114a169c64845d6126c9888888610f948c611ec0565b89604051602001610faa96959493929190612b08565b6040516020818303038152906040528051906020012090506000610fcd82611f1e565b90506000610fdd82878787611f38565b90508973ffffffffffffffffffffffffffffffffffffffff168173ffffffffffffffffffffffffffffffffffffffff161461104d576040517f08c379a000000000000000000000000000000000000000000000000000000000815260040161104490612bb5565b60405180910390fd5b6110588a8a8a6110f8565b50505050505050505050565b6000600160008473ffffffffffffffffffffffffffffffffffffffff1673ffffffffffffffffffffffffffffffffffffffff16815260200190815260200160002060008373ffffffffffffffffffffffffffffffffffffffff1673ffffffffffffffffffffffffffffffffffffffff16815260200190815260200160002054905092915050565b505050565b600033905090565b600073ffffffffffffffffffffffffffffffffffffffff168373ffffffffffffffffffffffffffffffffffffffff161415611168576040517f08c379a000000000000000000000000000000000000000000000000000000000815260040161115f90612c47565b60405180910390fd5b600073ffffffffffffffffffffffffffffffffffffffff168273ffffffffffffffffffffffffffffffffffffffff1614156111d8576040517f08c379a00000000000000000000000000000000000000000000000000000000081526004016111cf90612cd9565b60405180910390fd5b80600160008573ffffffffffffffffffffffffffffffffffffffff1673ffffffffffffffffffffffffffffffffffffffff16815260200190815260200160002060008473ffffffffffffffffffffffffffffffffffffffff1673ffffffffffffffffffffffffffffffffffffffff168152602001908152602001600020819055508173ffffffffffffffffffffffffffffffffffffffff168373ffffffffffffffffffffffffffffffffffffffff167f8c5be1e5ebec7d5bd14f71427d1e84f3dd0314c0f7b2291e5b200ac8c7c3b925836040516112b691906125e2565b60405180910390a3505050565b50565b6112da670af9dfe66d20b4f260c01b6112c3565b6112ee679747982fbc3b802e60c01b6112c3565b61130267c32e238962037f7e60c01b6112c3565b8073ffffffffffffffffffffffffffffffffffffffff16600560009054906101000a900473ffffffffffffffffffffffffffffffffffffffff1673ffffffffffffffffffffffffffffffffffffffff1614156113855761136c67a0617f2788d9537960c01b6112c3565b61138067aa7f93abc2616bd760c01b6112c3565b6115fb565b61139967d592e54bcba4e46760c01b6112c3565b6113ad67aaa424aba1c23ddf60c01b6112c3565b6113c16723aff152bed2e93d60c01b6112c3565b6113d567c4e5d2ab6c2f03e760c01b6112c3565b8073ffffffffffffffffffffffffffffffffffffffff16600660009054906101000a900473ffffffffffffffffffffffffffffffffffffffff1673ffffffffffffffffffffffffffffffffffffffff161415611466576040517f08c379a000000000000000000000000000000000000000000000000000000000815260040161145d90612d45565b60405180910390fd5b61147a675db743a0f8a9ead960c01b6112c3565b61148e673e295f5dc25d73d960c01b6112c3565b6114a26768f1837a6681002460c01b6112c3565b6114b667b6d3efd546b1625d60c01b6112c3565b600073ffffffffffffffffffffffffffffffffffffffff168173ffffffffffffffffffffffffffffffffffffffff161415611526576040517f08c379a000000000000000000000000000000000000000000000000000000000815260040161151d90612db1565b60405180910390fd5b61153a67de8a0828c955c06e60c01b6112c3565b61154e67844ef486dd2c8dd560c01b6112c3565b80600560006101000a81548173ffffffffffffffffffffffffffffffffffffffff021916908373ffffffffffffffffffffffffffffffffffffffff1602179055506115a3672f1fbbc4a9a4fa5660c01b6112c3565b6115b76710d27b9cca0f7eee60c01b6112c3565b8073ffffffffffffffffffffffffffffffffffffffff167f906a1c6bd7e3091ea86693dd029a831c19049ce77f1dce2ce0bab1cacbabce2260405160405180910390a25b50565b600061160a8484611064565b90507fffffffffffffffffffffffffffffffffffffffffffffffffffffffffffffffff81146116845781811015611676576040517f08c379a000000000000000000000000000000000000000000000000000000000815260040161166d90612e1d565b60405180910390fd5b61168384848484036110f8565b5b50505050565b600073ffffffffffffffffffffffffffffffffffffffff168373ffffffffffffffffffffffffffffffffffffffff1614156116fa576040517f08c379a00000000000000000000000000000000000000000000000000000000081526004016116f190612eaf565b60405180910390fd5b600073ffffffffffffffffffffffffffffffffffffffff168273ffffffffffffffffffffffffffffffffffffffff16141561176a576040517f08c379a000000000000000000000000000000000000000000000000000000000815260040161176190612f41565b60405180910390fd5b611775838383611f63565b60008060008573ffffffffffffffffffffffffffffffffffffffff1673ffffffffffffffffffffffffffffffffffffffff168152602001908152602001600020549050818110156117fb576040517f08c379a00000000000000000000000000000000000000000000000000000000081526004016117f290612fd3565b60405180910390fd5b8181036000808673ffffffffffffffffffffffffffffffffffffffff1673ffffffffffffffffffffffffffffffffffffffff16815260200190815260200160002081905550816000808573ffffffffffffffffffffffffffffffffffffffff1673ffffffffffffffffffffffffffffffffffffffff168152602001908152602001600020600082825461188e9190612948565b925050819055508273ffffffffffffffffffffffffffffffffffffffff168473ffffffffffffffffffffffffffffffffffffffff167fddf252ad1be2c89b69c2b068fc378daa952ba7f163c4a11628f55a4df523b3ef846040516118f291906125e2565b60405180910390a3611905848484611fdf565b50505050565b60007f000000000000000000000000000000000000000000000000000000000000000073ffffffffffffffffffffffffffffffffffffffff163073ffffffffffffffffffffffffffffffffffffffff1614801561198757507f000000000000000000000000000000000000000000000000000000000000000046145b156119b4577f00000000000000000000000000000000000000000000000000000000000000009050611a22565b611a1f7f00000000000000000000000000000000000000000000000000000000000000007f00000000000000000000000000000000000000000000000000000000000000007f0000000000000000000000000000000000000000000000000000000000000000611fe4565b90505b90565b50565b611a3061201e565b6000600660146101000a81548160ff0219169083151502179055507f5db9ee0a495bf2e6ff9c91a7834c1ba4fdd244a5e8aa4e537bd38aeae4b073aa611a746110f0565b604051611a8191906126f7565b60405180910390a1565b600073ffffffffffffffffffffffffffffffffffffffff168273ffffffffffffffffffffffffffffffffffffffff161415611afb576040517f08c379a0000000000000000000000000000000000000000000000000000000008152600401611af290613065565b60405180910390fd5b611b0782600083611f63565b60008060008473ffffffffffffffffffffffffffffffffffffffff1673ffffffffffffffffffffffffffffffffffffffff16815260200190815260200160002054905081811015611b8d576040517f08c379a0000000000000000000000000000000000000000000000000000000008152600401611b84906130f7565b60405180910390fd5b8181036000808573ffffffffffffffffffffffffffffffffffffffff1673ffffffffffffffffffffffffffffffffffffffff168152602001908152602001600020819055508160026000828254611be49190613117565b92505081905550600073ffffffffffffffffffffffffffffffffffffffff168373ffffffffffffffffffffffffffffffffffffffff167fddf252ad1be2c89b69c2b068fc378daa952ba7f163c4a11628f55a4df523b3ef84604051611c4991906125e2565b60405180910390a3611c5d83600084611fdf565b505050565b611c7667c790d01e52c8cd3160c01b6112c3565b611c8a67e41dd628fcba993460c01b6112c3565b611c9e67a25ac37fd1e9768c60c01b6112c3565b8073ffffffffffffffffffffffffffffffffffffffff16600660009054906101000a900473ffffffffffffffffffffffffffffffffffffffff1673ffffffffffffffffffffffffffffffffffffffff161415611d2157611d08674c55346b7666187460c01b6112c3565b611d1c67dedf3fe086f16ba360c01b6112c3565b611e4c565b611d356702059a2e1f03a2ca60c01b6112c3565b611d496746c1ff4c7421569060c01b6112c3565b80600660006101000a81548173ffffffffffffffffffffffffffffffffffffffff021916908373ffffffffffffffffffffffffffffffffffffffff160217905550611d9e675edf67129ddd284c60c01b6112c3565b6000600560006101000a81548173ffffffffffffffffffffffffffffffffffffffff021916908373ffffffffffffffffffffffffffffffffffffffff160217905550611df4679134a0b578d5a97d60c01b6112c3565b611e08678ea4abb9ddfb0ad060c01b6112c3565b8073ffffffffffffffffffffffffffffffffffffffff167fa2ea9883a321a3e97b8266c2b078bfeec6d50c711ed71f874a90d500ae2eaf3660405160405180910390a25b50565b600081600001549050919050565b611e65612067565b6001600660146101000a81548160ff0219169083151502179055507f62e78cea01bee320cd4e420270b5ea74000d11b0c9f74754ebdbfc544b05a258611ea96110f0565b604051611eb691906126f7565b60405180910390a1565b600080600760008473ffffffffffffffffffffffffffffffffffffffff1673ffffffffffffffffffffffffffffffffffffffff1681526020019081526020016000209050611f0d81611e4f565b9150611f18816120b1565b50919050565b6000611f31611f2b61190b565b836120c7565b9050919050565b6000806000611f49878787876120fa565b91509150611f5681612207565b8192505050949350505050565b611f7767b751a1837a038f5d60c01b611a25565b611f7f612067565b611f936747283dbf4f02b8ab60c01b611a25565b611fa76757b5c307a40fcf1b60c01b611a25565b611fbb676cbf01586cd54a2360c01b611a25565b611fcf67b40a5aadaab04e1a60c01b611a25565b611fda8383836110eb565b505050565b505050565b60008383834630604051602001611fff95949392919061314b565b6040516020818303038152906040528051906020012090509392505050565b6120266109a4565b612065576040517f08c379a000000000000000000000000000000000000000000000000000000000815260040161205c906131ea565b60405180910390fd5b565b61206f6109a4565b156120af576040517f08c379a00000000000000000000000000000000000000000000000000000000081526004016120a690613256565b60405180910390fd5b565b6001816000016000828254019250508190555050565b600082826040516020016120dc9291906132ee565b60405160208183030381529060405280519060200120905092915050565b6000807f7fffffffffffffffffffffffffffffff5d576e7357a4501ddfe92f46681b20a08360001c11156121355760006003915091506121fe565b601b8560ff161415801561214d5750601c8560ff1614155b1561215f5760006004915091506121fe565b6000600187878787604051600081526020016040526040516121849493929190613325565b6020604051602081039080840390855afa1580156121a6573d6000803e3d6000fd5b505050602060405103519050600073ffffffffffffffffffffffffffffffffffffffff168173ffffffffffffffffffffffffffffffffffffffff1614156121f5576000600192509250506121fe565b80600092509250505b94509492505050565b6000600481111561221b5761221a61336a565b5b81600481111561222e5761222d61336a565b5b1415612239576123d9565b6001600481111561224d5761224c61336a565b5b8160048111156122605761225f61336a565b5b14156122a1576040517f08c379a0000000000000000000000000000000000000000000000000000000008152600401612298906133e5565b60405180910390fd5b600260048111156122b5576122b461336a565b5b8160048111156122c8576122c761336a565b5b1415612309576040517f08c379a000000000000000000000000000000000000000000000000000000000815260040161230090613451565b60405180910390fd5b6003600481111561231d5761231c61336a565b5b8160048111156123305761232f61336a565b5b1415612371576040517f08c379a0000000000000000000000000000000000000000000000000000000008152600401612368906134e3565b60405180910390fd5b6004808111156123845761238361336a565b5b8160048111156123975761239661336a565b5b14156123d8576040517f08c379a00000000000000000000000000000000000000000000000000000000081526004016123cf90613575565b60405180910390fd5b5b50565b600081519050919050565b600082825260208201905092915050565b60005b838110156124165780820151818401526020810190506123fb565b83811115612425576000848401525b50505050565b6000601f19601f8301169050919050565b6000612447826123dc565b61245181856123e7565b93506124618185602086016123f8565b61246a8161242b565b840191505092915050565b6000602082019050818103600083015261248f818461243c565b905092915050565b600080fd5b600073ffffffffffffffffffffffffffffffffffffffff82169050919050565b60006124c78261249c565b9050919050565b6124d7816124bc565b81146124e257600080fd5b50565b6000813590506124f4816124ce565b92915050565b6000819050919050565b61250d816124fa565b811461251857600080fd5b50565b60008135905061252a81612504565b92915050565b6000806040838503121561254757612546612497565b5b6000612555858286016124e5565b92505060206125668582860161251b565b9150509250929050565b60008115159050919050565b61258581612570565b82525050565b60006020820190506125a0600083018461257c565b92915050565b6000602082840312156125bc576125bb612497565b5b60006125ca848285016124e5565b91505092915050565b6125dc816124fa565b82525050565b60006020820190506125f760008301846125d3565b92915050565b60008060006060848603121561261657612615612497565b5b6000612624868287016124e5565b9350506020612635868287016124e5565b92505060406126468682870161251b565b9150509250925092565b600060ff82169050919050565b61266681612650565b82525050565b6000602082019050612681600083018461265d565b92915050565b6000819050919050565b61269a81612687565b82525050565b60006020820190506126b56000830184612691565b92915050565b6000602082840312156126d1576126d0612497565b5b60006126df8482850161251b565b91505092915050565b6126f1816124bc565b82525050565b600060208201905061270c60008301846126e8565b92915050565b61271b81612650565b811461272657600080fd5b50565b60008135905061273881612712565b92915050565b61274781612687565b811461275257600080fd5b50565b6000813590506127648161273e565b92915050565b600080600080600080600060e0888a03121561278957612788612497565b5b60006127978a828b016124e5565b97505060206127a88a828b016124e5565b96505060406127b98a828b0161251b565b95505060606127ca8a828b0161251b565b94505060806127db8a828b01612729565b93505060a06127ec8a828b01612755565b92505060c06127fd8a828b01612755565b91505092959891949750929550565b6000806040838503121561282357612822612497565b5b6000612831858286016124e5565b9250506020612842858286016124e5565b9150509250929050565b7f4e487b7100000000000000000000000000000000000000000000000000000000600052602260045260246000fd5b6000600282049050600182168061289357607f821691505b602082108114156128a7576128a661284c565b5b50919050565b7f4e6f74206f776e65720000000000000000000000000000000000000000000000600082015250565b60006128e36009836123e7565b91506128ee826128ad565b602082019050919050565b60006020820190508181036000830152612912816128d6565b9050919050565b7f4e487b7100000000000000000000000000000000000000000000000000000000600052601160045260246000fd5b6000612953826124fa565b915061295e836124fa565b9250827fffffffffffffffffffffffffffffffffffffffffffffffffffffffffffffffff0382111561299357612992612919565b5b828201905092915050565b7f4e6f74206e6f6d696e6174656420746f206f776e657273686970000000000000600082015250565b60006129d4601a836123e7565b91506129df8261299e565b602082019050919050565b60006020820190508181036000830152612a03816129c7565b9050919050565b7f45524332303a2064656372656173656420616c6c6f77616e63652062656c6f7760008201527f207a65726f000000000000000000000000000000000000000000000000000000602082015250565b6000612a666025836123e7565b9150612a7182612a0a565b604082019050919050565b60006020820190508181036000830152612a9581612a59565b9050919050565b7f45524332305065726d69743a206578706972656420646561646c696e65000000600082015250565b6000612ad2601d836123e7565b9150612add82612a9c565b602082019050919050565b60006020820190508181036000830152612b0181612ac5565b9050919050565b600060c082019050612b1d6000830189612691565b612b2a60208301886126e8565b612b3760408301876126e8565b612b4460608301866125d3565b612b5160808301856125d3565b612b5e60a08301846125d3565b979650505050505050565b7f45524332305065726d69743a20696e76616c6964207369676e61747572650000600082015250565b6000612b9f601e836123e7565b9150612baa82612b69565b602082019050919050565b60006020820190508181036000830152612bce81612b92565b9050919050565b7f45524332303a20617070726f76652066726f6d20746865207a65726f2061646460008201527f7265737300000000000000000000000000000000000000000000000000000000602082015250565b6000612c316024836123e7565b9150612c3c82612bd5565b604082019050919050565b60006020820190508181036000830152612c6081612c24565b9050919050565b7f45524332303a20617070726f766520746f20746865207a65726f20616464726560008201527f7373000000000000000000000000000000000000000000000000000000000000602082015250565b6000612cc36022836123e7565b9150612cce82612c67565b604082019050919050565b60006020820190508181036000830152612cf281612cb6565b9050919050565b7f416c7265616479206f776e657200000000000000000000000000000000000000600082015250565b6000612d2f600d836123e7565b9150612d3a82612cf9565b602082019050919050565b60006020820190508181036000830152612d5e81612d22565b9050919050565b7f5a65726f20616464726573730000000000000000000000000000000000000000600082015250565b6000612d9b600c836123e7565b9150612da682612d65565b602082019050919050565b60006020820190508181036000830152612dca81612d8e565b9050919050565b7f45524332303a20696e73756666696369656e7420616c6c6f77616e6365000000600082015250565b6000612e07601d836123e7565b9150612e1282612dd1565b602082019050919050565b60006020820190508181036000830152612e3681612dfa565b9050919050565b7f45524332303a207472616e736665722066726f6d20746865207a65726f20616460008201527f6472657373000000000000000000000000000000000000000000000000000000602082015250565b6000612e996025836123e7565b9150612ea482612e3d565b604082019050919050565b60006020820190508181036000830152612ec881612e8c565b9050919050565b7f45524332303a207472616e7366657220746f20746865207a65726f206164647260008201527f6573730000000000000000000000000000000000000000000000000000000000602082015250565b6000612f2b6023836123e7565b9150612f3682612ecf565b604082019050919050565b60006020820190508181036000830152612f5a81612f1e565b9050919050565b7f45524332303a207472616e7366657220616d6f756e742065786365656473206260008201527f616c616e63650000000000000000000000000000000000000000000000000000602082015250565b6000612fbd6026836123e7565b9150612fc882612f61565b604082019050919050565b60006020820190508181036000830152612fec81612fb0565b9050919050565b7f45524332303a206275726e2066726f6d20746865207a65726f2061646472657360008201527f7300000000000000000000000000000000000000000000000000000000000000602082015250565b600061304f6021836123e7565b915061305a82612ff3565b604082019050919050565b6000602082019050818103600083015261307e81613042565b9050919050565b7f45524332303a206275726e20616d6f756e7420657863656564732062616c616e60008201527f6365000000000000000000000000000000000000000000000000000000000000602082015250565b60006130e16022836123e7565b91506130ec82613085565b604082019050919050565b60006020820190508181036000830152613110816130d4565b9050919050565b6000613122826124fa565b915061312d836124fa565b9250828210156131405761313f612919565b5b828203905092915050565b600060a0820190506131606000830188612691565b61316d6020830187612691565b61317a6040830186612691565b61318760608301856125d3565b61319460808301846126e8565b9695505050505050565b7f5061757361626c653a206e6f7420706175736564000000000000000000000000600082015250565b60006131d46014836123e7565b91506131df8261319e565b602082019050919050565b60006020820190508181036000830152613203816131c7565b9050919050565b7f5061757361626c653a2070617573656400000000000000000000000000000000600082015250565b60006132406010836123e7565b915061324b8261320a565b602082019050919050565b6000602082019050818103600083015261326f81613233565b9050919050565b600081905092915050565b7f1901000000000000000000000000000000000000000000000000000000000000600082015250565b60006132b7600283613276565b91506132c282613281565b600282019050919050565b6000819050919050565b6132e86132e382612687565b6132cd565b82525050565b60006132f9826132aa565b915061330582856132d7565b60208201915061331582846132d7565b6020820191508190509392505050565b600060808201905061333a6000830187612691565b613347602083018661265d565b6133546040830185612691565b6133616060830184612691565b95945050505050565b7f4e487b7100000000000000000000000000000000000000000000000000000000600052602160045260246000fd5b7f45434453413a20696e76616c6964207369676e61747572650000000000000000600082015250565b60006133cf6018836123e7565b91506133da82613399565b602082019050919050565b600060208201905081810360008301526133fe816133c2565b9050919050565b7f45434453413a20696e76616c6964207369676e6174757265206c656e67746800600082015250565b600061343b601f836123e7565b915061344682613405565b602082019050919050565b6000602082019050818103600083015261346a8161342e565b9050919050565b7f45434453413a20696e76616c6964207369676e6174757265202773272076616c60008201527f7565000000000000000000000000000000000000000000000000000000000000602082015250565b60006134cd6022836123e7565b91506134d882613471565b604082019050919050565b600060208201905081810360008301526134fc816134c0565b9050919050565b7f45434453413a20696e76616c6964207369676e6174757265202776272076616c60008201527f7565000000000000000000000000000000000000000000000000000000000000602082015250565b600061355f6022836123e7565b915061356a82613503565b604082019050919050565b6000602082019050818103600083015261358e81613552565b905091905056fea26469706673582212209ed4c55c5f3b2a08a7618f50dbe496f3c9945327dbc77a195fb8f8e19fde78aa64736f6c634300080c0033",
  "linkReferences": {},
  "deployedLinkReferences": {}
}